:020000040000fa
:080000000002040000000000f2
:020000040000fa
:04000800c80200002a
:020000040000fa
:04000c00c802000026
:020000040000fa
:04001000c802000022
:020000040000fa
:04001400c80200001e
:020000040000fa
:04001800c80200001a
:020000040000fa
:04001c00c802000016
:020000040000fa
:04002000c802000012
:020000040000fa
:04002400c80200000e
:020000040000fa
:04002800c80200000a
:020000040000fa
:04002c00c802000006
:020000040000fa
:04003000c802000002
:020000040000fa
:04003400c8020000fe
:020000040000fa
:04003800c8020000fa
:020000040000fa
:04003c00c8020000f6
:020000040000fa
:04004000c8020000f2
:020000040000fa
:04004400c8020000ee
:020000040000fa
:04004800c8020000ea
:020000040000fa
:04004c00c8020000e6
:020000040000fa
:04005000c8020000e2
:020000040000fa
:04005400c8020000de
:020000040000fa
:04005800c8020000da
:020000040000fa
:04005c00c8020000d6
:020000040000fa
:04006000c8020000d2
:020000040000fa
:04006400c8020000ce
:020000040000fa
:04006800c8020000ca
:020000040000fa
:04006c00c8020000c6
:020000040000fa
:04007000c8020000c2
:020000040000fa
:04007400c8020000be
:020000040000fa
:04007800c8020000ba
:020000040000fa
:04007c00c8020000b6
:020000040000fa
:04008000c8020000b2
:020000040000fa
:04008400c8020000ae
:020000040000fa
:04008800c8020000aa
:020000040000fa
:04008c00c8020000a6
:020000040000fa
:04009000c8020000a2
:020000040000fa
:04009400c80200009e
:020000040000fa
:04009800c80200009a
:020000040000fa
:04009c00c802000096
:020000040000fa
:0400a000c802000092
:020000040000fa
:0400a400c80200008e
:020000040000fa
:0400a800c80200008a
:020000040000fa
:0400ac00c802000086
:020000040000fa
:0400b000c802000082
:020000040000fa
:0400b400c80200007e
:020000040000fa
:0400b800c80200007a
:020000040000fa
:0400bc00c802000076
:020000040000fa
:0400c000c802000072
:020000040000fa
:0400c400c80200006e
:020000040000fa
:0400c800c80200006a
:020000040000fa
:0400cc00c802000066
:020000040000fa
:0400d000c802000062
:020000040000fa
:0400d400c80200005e
:020000040000fa
:0400d800c80200005a
:020000040000fa
:0400dc00c802000056
:020000040000fa
:0400e000c802000052
:020000040000fa
:0400e400c80200004e
:020000040000fa
:0400e800c80200004a
:020000040000fa
:0400ec00c802000046
:020000040000fa
:0400f000c802000042
:020000040000fa
:0400f400c80200003e
:020000040000fa
:0400f800c80200003a
:020000040000fa
:0400fc00c802000036
:020000040000fa
:04010000c802000031
:020000040000fa
:04010400c80200002d
:020000040000fa
:04010800c802000029
:020000040000fa
:04010c00c802000025
:020000040000fa
:04011000c802000021
:020000040000fa
:04011400c80200001d
:020000040000fa
:04011800c802000019
:020000040000fa
:04011c00c802000015
:020000040000fa
:04012000c802000011
:020000040000fa
:04012400c80200000d
:020000040000fa
:04012800c802000009
:020000040000fa
:04012c00c802000005
:020000040000fa
:04013000c802000001
:020000040000fa
:04013400c8020000fd
:020000040000fa
:04013800c8020000f9
:020000040000fa
:04013c00c8020000f5
:020000040000fa
:04014000c8020000f1
:020000040000fa
:04014400c8020000ed
:020000040000fa
:04014800c8020000e9
:020000040000fa
:04014c00c8020000e5
:020000040000fa
:04015000c8020000e1
:020000040000fa
:04015400c8020000dd
:020000040000fa
:04015800c8020000d9
:020000040000fa
:04015c00c8020000d5
:020000040000fa
:04016000c8020000d1
:020000040000fa
:04016400c8020000cd
:020000040000fa
:04020800c802000028
:020000040000fa
:04020c00c802000024
:020000040000fa
:04021000c802000020
:020000040000fa
:04021400c80200001c
:020000040000fa
:04021800c802000018
:020000040000fa
:04021c00c802000014
:020000040000fa
:04022000c802000010
:020000040000fa
:04022400c80200000c
:020000040000fa
:04022800c802000008
:020000040000fa
:04022c00c802000004
:020000040000fa
:04023000c802000000
:020000040000fa
:04023400c8020000fc
:020000040000fa
:04023800c8020000f8
:020000040000fa
:04023c00c8020000f4
:020000040000fa
:04024000c8020000f0
:020000040000fa
:04024400c8020000ec
:020000040000fa
:04024800c8020000e8
:020000040000fa
:04024c00c8020000e4
:020000040000fa
:04025000c8020000e0
:020000040000fa
:04025400c8020000dc
:020000040000fa
:04025800c8020000d8
:020000040000fa
:04025c00c8020000d4
:020000040000fa
:04026000c8020000d0
:020000040000fa
:04026400c8020000cc
:020000040000fa
:04026800c8020000c8
:020000040000fa
:04026c00c8020000c4
:020000040000fa
:04027000c8020000c0
:020000040000fa
:04027400c8020000bc
:020000040000fa
:04027800c8020000b8
:020000040000fa
:04027c00c8020000b4
:020000040000fa
:04028000c8020000b0
:020000040000fa
:04028400c8020000ac
:020000040000fa
:04028800c8020000a8
:020000040000fa
:04028c00c8020000a4
:020000040000fa
:04029000c8020000a0
:020000040000fa
:04029400c80200009c
:020000040000fa
:04029800c802000098
:020000040000fa
:04029c00c802000094
:020000040000fa
:0402a000c802000090
:020000040000fa
:0402a400c80200008c
:020000040000fa
:0402a800c802000088
:020000040000fa
:0402ac00c802000084
:020000040000fa
:0402b000c802000080
:020000040000fa
:0402b400c80200007c
:020000040000fa
:0402b800c802000078
:020000040000fa
:0402bc00c802000074
:020000040000fa
:0402c000c802000070
:020000040000fa
:0402c400c80200006c
:020000040000fa
:0402c800c802000068
:020000040000fa
:0402cc00c802000064
:020000040000fa
:0402d000c802000060
:020000040000fa
:0402d400c80200005c
:020000040000fa
:0402d800c802000058
:020000040000fa
:0402dc00c802000054
:020000040000fa
:0402e000c802000050
:020000040000fa
:0402e400c80200004c
:020000040000fa
:0402e800c802000048
:020000040000fa
:0402ec00c802000044
:020000040000fa
:0402f000c802000040
:020000040000fa
:0402f400c80200003c
:020000040000fa
:0402f800c802000038
:020000040000fa
:0402fc00c802000034
:020000040000fa
:04030000c80200002f
:020000040000fa
:04030400c80200002b
:020000040000fa
:04030800c802000027
:020000040000fa
:04030c00c802000023
:020000040000fa
:04031000c80200001f
:020000040000fa
:04031400c80200001b
:020000040000fa
:04031800c802000017
:020000040000fa
:04031c00c802000013
:020000040000fa
:04032000c80200000f
:020000040000fa
:04032400c80200000b
:020000040000fa
:04032800c802000007
:020000040000fa
:04032c00c802000003
:020000040000fa
:04033000c8020000ff
:020000040000fa
:04033400c8020000fb
:020000040000fa
:04033800c8020000f7
:020000040000fa
:04033c00c8020000f3
:020000040000fa
:04034000c8020000ef
:020000040000fa
:04034400c8020000eb
:020000040000fa
:04034800c8020000e7
:020000040000fa
:04034c00c8020000e3
:020000040000fa
:04035000c8020000df
:020000040000fa
:04035400c8020000db
:020000040000fa
:04035800c8020000d7
:020000040000fa
:04035c00c8020000d3
:020000040000fa
:04036000c8020000cf
:020000040000fa
:04036400c8020000cb
:020000040000fa
:100400008f8b20000e7f24000e018800000000006a
:10041000000020000000e000020032000001200087
:1004200020028800140007005b0007000000e000c5
:1004300003003a0060d320000100200002003700d2
:100440000000200001002000810f70000100320038
:1004500014000700000020000000e000020032004d
:100460000000020000000000c20c020000000000ba
:100470000040da000000fe004440a900000c20000b
:100480000000e0000300320000002000a00188000e
:100490004440a800000006008a1f78008b1f7800e7
:1004a0000000060091018800800478000000eb0045
:1004b0001a003700e284440032a0b4009905ba0063
:1004c000e284440032a0b4009906ba00e2844400f9
:1004d00032a0b4000006eb00476fde00fd07b2005b
:1004e000636ce10003003a00ebff07000000eb0043
:1004f0000a003700606ce10004003a00005deb0088
:100500008b05e900fdff3e00040037006168e10053
:10051000010032000086eb000b00070019c7ba008b
:100520001905ba000e04e00003003a000a00e000da
:10053000e0ff3a0000000600fe07b2009e018800be
:100540008a047800f5ff3700395dba008b05e900b1
:100550000c003200295dba008b05e900080032006a
:100560000c00e00003003a00e284440032a0b40032
:10057000f5ff370019ddba008b05e900faff3a00f4
:100580008904e800e184440032a0b40000000600c1
:0c0590000040da000000fe000000050042
:020000040000fa
:10059c00010200000000000000000000000000004c
:1005ac00fffd0000ffff0000000000000100000044
:1005bc001c2c0000feff000070fe0000000000007c
:1005cc00010200000000000000000000000000001c
:1005dc00fffd0000ffff0000000000000100000014
:1005ec0024290000feff00007efe00000000000039
:1005fc00ff010000000000000000000000000000ef
:10060c0001fe0000ffff00000000000001000000e0
:10061c00362d0000feff000049fc00000000000029
:10062c00ff010000000000000000000000000000be
:10063c0001fe0000ffff00000000000001000000b0
:10064c00f52b0000feff000056fc0000000000002f
:10065c007302000000000000000000000000000019
:10066c008dfd0000ffff00000000000001000000f5
:10067c00f9400000feff000018fe00000000000022
:10068c0073020000000000000000000000000000e9
:10069c008dfd0000ffff00000000000001000000c5
:1006ac00a53c0000feff000028fe0000000000003a
:1006bc0070020000000000000000000000000000bc
:1006cc0090fd0000ffff0000000000000100000092
:1006dc00ff410000feff000077fb0000000000005f
:1006ec00700200000000000000000000000000008c
:1006fc0090fd0000ffff0000000000000100000062
:10070c002e400000feff000087fb000000000000f0
:020000040000fa
:10071c000200fa00889fbe00000f78009040800015
:10072c00a1408000b0408800c1408800704080002b
:10073c008140800090408800a14088001e00780015
:10074c00cf80de007040880081408800f04080003f
:10075c00014180001041880021418800d040800078
:10076c00e1408000f040880001418800721684004e
:10077c00831684007040800081408000009ab9008c
:10078c0004027800028bb900860278000502420050
:10079c000011b80003024200840178009416840012
:1007ac00a516840090408000a140800000abb900e9
:1007bc0006037800048cb900880378000703430013
:1007cc000020b800010343008600780002034000bb
:1007dc0083834800b2168400c3168400b0408000a6
:1007ec00c1408000009ab90004027800028cb90064
:1007fc0088027800050242000010b8000102420095
:10080c00840078000603400087834800f2168400b9
:10081c0003178400f040800001418000009ab90069
:10082c0004027800028cb9008802780005024200ac
:10083c000010b8000102420084007800000353004d
:10084c0081835b0012178400231784001041800001
:10085c0021418000009ab90004027800028cb90092
:10086c0088027800050242000010b8000102420024
:10087c00840078000000530081805b004088de001b
:10088c00cf80de00d0408800e140880050418000dd
:10089c0061418000704188008141880030418000b6
:1008ac00414180005041880061418800321784002a
:1008bc0043178400d0408000e1408000009ab900ca
:1008cc0004027800028bb90086027800050242000f
:1008dc000011b80003024200840178005417840010
:1008ec0065178400f04080000141800000abb90026
:1008fc0006037800048cb9008803780007034300d2
:10090c000020b80001034300860078000203400079
:10091c008383480072178400831784001041800081
:10092c0021418000009ab90004027800028cb900c1
:10093c0088027800050242000010b8000102420053
:10094c00840078000603400087834800b2178400b7
:10095c00c31784005041800061418000009ab900a7
:10096c0004027800028cb90088027800050242006b
:10097c000010b8000102420084007800000353000c
:10098c0081835b00d2178400e317840070418000e0
:10099c0081418000009ab90004027800028cb900f1
:1009ac0088027800050242000010b80001024200e3
:1009bc00840078000000530081805b004088de00da
:1009cc00cf80de003041880041418800b04180007a
:1009dc00c1418000d0418800e141880090418000f5
:1009ec00a1418000b0418800c1418800f217840009
:1009fc00031884003041800041418000009ab90006
:100a0c0004027800028bb9008602780005024200cd
:100a1c000011b8000302420084017800141884000d
:100a2c0025188400504180006141800000abb90062
:100a3c0006037800048cb900880378000703430090
:100a4c000020b80001034300860078000203400038
:100a5c00838348003218840043188400704180005e
:100a6c0081418000009ab90004027800028cb90020
:100a7c0088027800050242000010b8000102420012
:100a8c0084007800060340008783480072188400b5
:100a9c0083188400b0418000c1418000009ab900e5
:100aac0004027800028cb90088027800050242002a
:100abc000010b800010242008400780000035300cb
:100acc0081835b0092188400a3188400d0418000bd
:100adc00e1418000009ab90004027800028cb90050
:100aec0088027800050242000010b80001024200a2
:100afc00840078000000530081805b004088de0099
:100b0c00cf80de0090418800a14188001042800017
:100b1c00214280003042880041428800f041800030
:100b2c00014280001042880021428800b2188400e3
:100b3c00c318840090418000a1418000009ab90044
:100b4c0004027800028bb90086027800050242008c
:100b5c000011b8000302420084017800d41884000c
:100b6c00e5188400b0418000c141800000abb900a1
:100b7c0006037800048cb90088037800070343004f
:100b8c000020b800010343008600780002034000f7
:100b9c0083834800f218840003198400d04180003c
:100bac00e1418000009ab90004027800028cb9007f
:100bbc0088027800050242000010b80001024200d1
:100bcc0084007800060340008783480032198400b3
:100bdc00431984001042800021428000009ab90021
:100bec0004027800028cb9008802780005024200e9
:100bfc000010b8000102420084007800000353008a
:100c0c0081835b0052198400631984003042800098
:100c1c0041428000009ab90004027800028cb900ad
:100c2c0088027800050242000010b8000102420060
:100c3c00840078000000530081805b004088de0057
:100c4c00cf80de00f04188000142880070428000b5
:100c5c008142800090428800a1428800504280006e
:100c6c006142800070428800814288001e0078003a
:100c7c00cf80de005042880061428800d042800064
:100c8c00e1428000f042880001438800b0428000bd
:100c9c00c1428000d0428800e14288007219840071
:100cac00831984005042800061428000009ab90090
:100cbc0004027800028bb90086027800050242001b
:100ccc000011b800030242008401780094198400da
:100cdc00a5198400704280008142800000abb900ed
:100cec0006037800048cb9008803780007034300de
:100cfc000020b80001034300860078000203400086
:100d0c0083834800b2198400c31984009042800088
:100d1c00a1428000009ab90004027800028cb9004c
:100d2c0088027800050242000010b800010242005f
:100d3c00840078000603400087834800f219840081
:100d4c00031a8400d0428000e1428000009ab9006e
:100d5c0004027800028cb900880278000502420077
:100d6c000010b80001024200840078000003530018
:100d7c0081835b00121a8400231a8400f0428000e5
:100d8c0001438000009ab90004027800028cb9007b
:100d9c0088027800050242000010b80001024200ef
:100dac00840078000000530081805b004088de00e6
:100dbc00cf80de00b0428800c14288003043800002
:100dcc0041438000504388006143880010438000f9
:100ddc00214380003043880041438800321a84004c
:100dec00431a8400b0428000c1428000009ab900ce
:100dfc0004027800028bb9008602780005024200da
:100e0c000011b8000302420084017800541a8400d7
:100e1c00651a8400d0428000e142800000abb9002a
:100e2c0006037800048cb90088037800070343009c
:100e3c000020b80001034300860078000203400044
:100e4c0083834800721a8400831a8400f042800065
:100e5c0001438000009ab90004027800028cb900aa
:100e6c0088027800050242000010b800010242001e
:100e7c00840078000603400087834800b21a84007f
:100e8c00c31a84003043800041438000009ab900ab
:100e9c0004027800028cb900880278000502420036
:100eac000010b800010242008400780000035300d7
:100ebc0081835b00d21a8400e31a840050438000c3
:100ecc0061438000009ab90004027800028cb900da
:100edc0088027800050242000010b80001024200ae
:100eec00840078000000530081805b004088de00a5
:100efc00cf80de001043880021438800904380009f
:100f0c00a1438000b0438800c14388007043800037
:100f1c008143800090438800a1438800f21a84002a
:100f2c00031b84001043800021438000009ab90009
:100f3c0004027800028bb900860278000502420098
:100f4c000011b8000302420084017800141b8400d5
:100f5c00251b8400304380004143800000abb90066
:100f6c0006037800048cb90088037800070343005b
:100f7c000020b80001034300860078000203400003
:100f8c0083834800321b8400431b84005043800041
:100f9c0061438000009ab90004027800028cb90009
:100fac0088027800050242000010b80001024200dd
:100fbc00840078000603400087834800721b84007d
:100fcc00831b840090438000a1438000009ab900e9
:100fdc0004027800028cb9008802780005024200f5
:100fec000010b80001024200840078000003530096
:100ffc0081835b00921b8400a31b8400b0438000a0
:10100c00c1438000009ab90004027800028cb90038
:10101c0088027800050242000010b800010242006c
:10102c00840078000000530081805b004088de0063
:10103c00cf80de007043880081438800f04380003d
:10104c00014480001044880021448800d043800073
:10105c00e1438000f043880001448800b21b840007
:10106c00c31b84007043800081438000009ab90048
:10107c0004027800028bb900860278000502420057
:10108c000011b8000302420084017800d41b8400d4
:10109c00e51b840090438000a143800000abb900a5
:1010ac0006037800048cb90088037800070343001a
:1010bc000020b800010343008600780002034000c2
:1010cc0083834800f21b8400031c8400b04380001f
:1010dc00c1438000009ab90004027800028cb90068
:1010ec0088027800050242000010b800010242009c
:1010fc00840078000603400087834800321c84007b
:10110c00431c8400f043800001448000009ab90025
:10111c0004027800028cb9008802780005024200b3
:10112c000010b80001024200840078000003530054
:10113c0081835b00521c8400631c8400104480007b
:10114c0021448000009ab90004027800028cb90096
:10115c0088027800050242000010b800010242002b
:10116c00840078000000530081805b004088de0022
:10117c00cf80de00d0438800e14388004f04be00de
:10118c000080fa00000006000800fa000000eb00e6
:10119c00100798000000eb0020079800e0002000ea
:1011ac00000f7800270037001e00e9008000400087
:1011bc006088200000804000900078001e007800bd
:1011cc000001400060882000000041000108780008
:1011dc001e007800800040006088200000804000e5
:1011ec00900078001e009000808f500006003400a4
:1011fc001e007800800040006088200000804000c5
:10120c0090007800110798001e00780080004000c4
:10121c006088200000804000900078002e00900034
:10122c00808f500006003d001e00780080004000ba
:10123c006088200000804000900078002107980012
:10124c001e0fe9001e0078000000e000d6ff3c00f5
:10125c00f04180000142800000007800304488009a
:10126c00314480001e009000808f5000020034003a
:10127c003144800011079800314480002e0090000a
:10128c00808f500002003d003144800021079800ff
:10129c009e0090002e0090008080500000052000e1
:1012ac00808f500004003400cd22a80010002000d4
:1012bc003007980003003700cd22a9000000eb0096
:1012cc00300798003e0090000080fa0000000600f5
:1012dc000800fa000000eb00100798000000eb007b
:1012ec002007980090002000000f7800270037009e
:1012fc001e00e90080004000408a20000080400071
:10130c00900078001e00780000014000408a200008
:10131c0000004100010878001e00780080004000a9
:10132c00408a200000804000900078001e00900051
:10133c00808f5000060034001e00780080004000b2
:10134c00408a20000080400090007800110798002f
:10135c001e00780080004000408a20000080400081
:10136c00900078002e009000808f500006003d0009
:10137c001e00780080004000408a20000080400061
:10138c0090007800210798001e0fe9001e007800dd
:10139c000000e000d6ff3c00d0438000e143800019
:1013ac000000780020458800214580001e00900038
:1013bc00808f5000020034002145800011079800f6
:1013cc00214580002e009000808f500002003d00cf
:1013dc0021458000210798009e0090002e0090006f
:1013ec0080805000a0052000808f50000400340045
:1013fc001000200030079800cd02a8000300370031
:10140c00cd02a9000000eb00300798003e009000d0
:10141c000080fa00000006000800fa00200798007f
:10142c00310798000000eb00000f78003e009000a0
:10143c000000e00009003a002e0090000000e000df
:10144c0003003a000000eb00100798000b00370077
:10145c001000200010079800080037002e009000a4
:10146c000000e00003003a00200020001007980064
:10147c000200370030002000100798000040800068
:10148c00e20f50003a003200e20f500005003e001f
:10149c000000e00008003200e10f5000150032009f
:1014ac00b9003700e30f50006a003200e40f50001f
:1014bc0098003200b40037001e009000e10f50007d
:1014cc00b3003a00100020000040880010002000fb
:1014dc001040880010002000204088000628ef00f3
:1014ec0090002000404088000a28ef000c28ef00f4
:1014fc00b2003700104080000000e8001040880067
:10150c001e009000e10f500003003a0020408000c4
:10151c000000e800204088001e009000e20f500000
:10152c0003003a00304080000000e80030408800a2
:10153c001140800070572000808f500096003400be
:10154c002140800090412000808f50000600340024
:10155c0020002000004088000228ef000428ef0043
:10156c000628ef00950037000028ef0093003700a5
:10157c00104080000000e800104088001e00900021
:10158c00e10f500003003a00204080000000e8000a
:10159c00204088001e009000e20f500003003a002b
:1015ac00304080000000e80030408800114080008e
:1015bc0070572000808f500079003400214080004b
:1015cc0090412000808f5000070034004040800084
:1015dc000000e900404088000228ef000428ef00da
:1015ec000628ef00150037003140800090412000a4
:1015fc00808f50001000340040408000110020000b
:10160c008008dd00604080000100700060408800b0
:10161c00404080000000e9004040880050408000bd
:10162c000000e800504088000228ef000428ef007a
:10163c000628ef00010037000028ef004040800032
:10164c000000e00058003d00300020000040880001
:10165c005a003700104080000000e800104088005d
:10166c001e009000e10f500003003a002040800063
:10167c000000e800204088001e009000e20f50009f
:10168c0003003a00304080000000e8003040880041
:10169c001140800070572000808f500044003400af
:1016ac005040800061006000004078000004e000c1
:1016bc000c0032003140800090412000808f50009f
:1016cc000600340040002000004088000228ef0093
:1016dc000428ef000628ef00380037000028ef0040
:1016ec00360037002140800090412000808f500050
:1016fc000600340040002000004088000228ef0063
:10170c000428ef000628ef002c0037000028ef001b
:10171c002a003700104080000000e80010408800cc
:10172c001e009000e10f500003003a0020408000a2
:10173c000000e800204088001e009000e20f5000de
:10174c0003003a00304080000000e8003040880080
:10175c001140800070572000808f5000160034001c
:10176c002140800090412000808f50000300340005
:10177c0010002000000f7800010037000028ef0057
:10178c000028ef000d0037000028ef000b00370099
:10179c0000000000090037000000000007003700bf
:1017ac0000000000050037000000000003003700b7
:1017bc000000000001003700000000001e0078004f
:1017cc000000e000040032000000eb00000f780085
:1017dc0060408000010037000000eb000080fa0040
:1017ec00000006000000fa00e0012000303a8800fa
:1017fc00213a800000fe2f0000806000203a880013
:10180c00213a8000f0f32f0000806000203a88001d
:10181c003200200080072000a10920003374200032
:10182c0080497800814978008249780012002000b4
:10183c00600420007105200023742000804978008a
:10184c00814978008249780000000000113a80003c
:10185c00000027008080600000002300808f500073
:10186c00faff3a000080fa00000006000000fa00bf
:10187c000111800090ff2f00008060000011880093
:10188c00400120004011880021e2a8002342a8005a
:10189c008111800090ff2f00008060008011880073
:1018ac0040012000c011880031e2a8003342a8009a
:1018bc0031368000f00f2e00808060000030200058
:1018cc0001007000303688003136800000fe2f0099
:1018dc00008060005000b300303688000080fa00b1
:1018ec00000006000000fa0013e1a9001221a90073
:1018fc0091088000f0fc2f000080600090088800a8
:10190c000a21ef0080b220007008880013e1a800c3
:10191c000080fa00000006000000fa00c002a800d7
:10192c002143a90050c0b30024e3b7002043a80012
:10193c003003a8002c03a90001198000f0f12f003e
:10194c00008060000060a0000019880085a0a9003c
:10195c0021e3a8000080fa00000006000000fa0055
:10196c00a0ff0700c1ff0700deff0700eaff07002a
:10197c000080fa00000006000800fa00f7ff0700dc
:10198c00c902a900c922a900c942a900cd02a90017
:10199c00cd22a900cd42a8000300370000000000b2
:1019ac00010037000000000021048000000022002c
:1019bc00008060000000e000f8ff320085a0a90064
:1019cc0000188000000f78001e00780050fb070004
:1019dc00edfd0700100798003dfe0700200798005a
:1019ec00ae0090001e0090008bfe070030079800a0
:1019fc003e0090000000e000eaff3200511680002b
:101a0c00004020000080600000f0a7000000ea0009
:101a1c000000e9004f00de00004078000080fb0071
:101a2c00610060004a00dd006116800001a0a10089
:101a3c0001007000601688003e0090004880de00b7
:101a4c00004078000080fb00201188003e009000d0
:101a5c00004078000080fb00a0118800d2ff370006
:020000040000fa
:101a6c000e080000aa0000000000000000080000a2
:0c1a7c000e000000000000000000000050
:020000040000fa
:0200000401f009
:04000800ffff0000f6
:020000040000fa
:0200000401f009
:04000c00f8ff0000f9
:020000040000fa
:0200000401f009
:040010007dff000070
:020000040000fa
:0200000401f009
:040014007fff00006a
:020000040000fa
:0200000401f009
:04001c00dfff000002
:00000001FF
