:020000040000fa
:080000000002040000000000f2
:020000040000fa
:04000800c80200002a
:020000040000fa
:04000c00c802000026
:020000040000fa
:04001000c802000022
:020000040000fa
:04001400c80200001e
:020000040000fa
:04001800c80200001a
:020000040000fa
:04001c00c802000016
:020000040000fa
:04002000c802000012
:020000040000fa
:04002400c80200000e
:020000040000fa
:04002800c80200000a
:020000040000fa
:04002c00c802000006
:020000040000fa
:04003000c802000002
:020000040000fa
:04003400c8020000fe
:020000040000fa
:04003800c8020000fa
:020000040000fa
:04003c00c8020000f6
:020000040000fa
:04004000c8020000f2
:020000040000fa
:04004400c8020000ee
:020000040000fa
:04004800c8020000ea
:020000040000fa
:04004c00c8020000e6
:020000040000fa
:04005000c8020000e2
:020000040000fa
:04005400c8020000de
:020000040000fa
:04005800c8020000da
:020000040000fa
:04005c00c8020000d6
:020000040000fa
:04006000c8020000d2
:020000040000fa
:04006400c8020000ce
:020000040000fa
:04006800c8020000ca
:020000040000fa
:04006c00c8020000c6
:020000040000fa
:04007000c8020000c2
:020000040000fa
:04007400c8020000be
:020000040000fa
:04007800c8020000ba
:020000040000fa
:04007c00c8020000b6
:020000040000fa
:04008000c8020000b2
:020000040000fa
:04008400c8020000ae
:020000040000fa
:04008800c8020000aa
:020000040000fa
:04008c00c8020000a6
:020000040000fa
:04009000c8020000a2
:020000040000fa
:04009400c80200009e
:020000040000fa
:04009800c80200009a
:020000040000fa
:04009c00c802000096
:020000040000fa
:0400a000c802000092
:020000040000fa
:0400a400c80200008e
:020000040000fa
:0400a800c80200008a
:020000040000fa
:0400ac00c802000086
:020000040000fa
:0400b000c802000082
:020000040000fa
:0400b400c80200007e
:020000040000fa
:0400b800c80200007a
:020000040000fa
:0400bc00c802000076
:020000040000fa
:0400c000c802000072
:020000040000fa
:0400c400c80200006e
:020000040000fa
:0400c800c80200006a
:020000040000fa
:0400cc00c802000066
:020000040000fa
:0400d000c802000062
:020000040000fa
:0400d400c80200005e
:020000040000fa
:0400d800c80200005a
:020000040000fa
:0400dc00c802000056
:020000040000fa
:0400e000c802000052
:020000040000fa
:0400e400c80200004e
:020000040000fa
:0400e800c80200004a
:020000040000fa
:0400ec00c802000046
:020000040000fa
:0400f000c802000042
:020000040000fa
:0400f400c80200003e
:020000040000fa
:0400f800c80200003a
:020000040000fa
:0400fc00c802000036
:020000040000fa
:04010000c802000031
:020000040000fa
:04010400c80200002d
:020000040000fa
:04010800c802000029
:020000040000fa
:04010c00c802000025
:020000040000fa
:04011000c802000021
:020000040000fa
:04011400c80200001d
:020000040000fa
:04011800c802000019
:020000040000fa
:04011c00c802000015
:020000040000fa
:04012000c802000011
:020000040000fa
:04012400c80200000d
:020000040000fa
:04012800c802000009
:020000040000fa
:04012c00c802000005
:020000040000fa
:04013000c802000001
:020000040000fa
:04013400c8020000fd
:020000040000fa
:04013800c8020000f9
:020000040000fa
:04013c00c8020000f5
:020000040000fa
:04014000c8020000f1
:020000040000fa
:04014400c8020000ed
:020000040000fa
:04014800c8020000e9
:020000040000fa
:04014c00c8020000e5
:020000040000fa
:04015000c8020000e1
:020000040000fa
:04015400c8020000dd
:020000040000fa
:04015800c8020000d9
:020000040000fa
:04015c00c8020000d5
:020000040000fa
:04016000c8020000d1
:020000040000fa
:04016400c8020000cd
:020000040000fa
:04020800c802000028
:020000040000fa
:04020c00c802000024
:020000040000fa
:04021000c802000020
:020000040000fa
:04021400c80200001c
:020000040000fa
:04021800c802000018
:020000040000fa
:04021c00c802000014
:020000040000fa
:04022000c802000010
:020000040000fa
:04022400c80200000c
:020000040000fa
:04022800c802000008
:020000040000fa
:04022c00c802000004
:020000040000fa
:04023000c802000000
:020000040000fa
:04023400c8020000fc
:020000040000fa
:04023800c8020000f8
:020000040000fa
:04023c00c8020000f4
:020000040000fa
:04024000c8020000f0
:020000040000fa
:04024400c8020000ec
:020000040000fa
:04024800c8020000e8
:020000040000fa
:04024c00c8020000e4
:020000040000fa
:04025000c8020000e0
:020000040000fa
:04025400c8020000dc
:020000040000fa
:04025800c8020000d8
:020000040000fa
:04025c00c8020000d4
:020000040000fa
:04026000c8020000d0
:020000040000fa
:04026400c8020000cc
:020000040000fa
:04026800c8020000c8
:020000040000fa
:04026c00c8020000c4
:020000040000fa
:04027000c8020000c0
:020000040000fa
:04027400c8020000bc
:020000040000fa
:04027800c8020000b8
:020000040000fa
:04027c00c8020000b4
:020000040000fa
:04028000c8020000b0
:020000040000fa
:04028400c8020000ac
:020000040000fa
:04028800c8020000a8
:020000040000fa
:04028c00c8020000a4
:020000040000fa
:04029000c8020000a0
:020000040000fa
:04029400c80200009c
:020000040000fa
:04029800c802000098
:020000040000fa
:04029c00c802000094
:020000040000fa
:0402a000c802000090
:020000040000fa
:0402a400c80200008c
:020000040000fa
:0402a800c802000088
:020000040000fa
:0402ac00c802000084
:020000040000fa
:0402b000c802000080
:020000040000fa
:0402b400c80200007c
:020000040000fa
:0402b800c802000078
:020000040000fa
:0402bc00c802000074
:020000040000fa
:0402c000c802000070
:020000040000fa
:0402c400c80200006c
:020000040000fa
:0402c800c802000068
:020000040000fa
:0402cc00c802000064
:020000040000fa
:0402d000c802000060
:020000040000fa
:0402d400c80200005c
:020000040000fa
:0402d800c802000058
:020000040000fa
:0402dc00c802000054
:020000040000fa
:0402e000c802000050
:020000040000fa
:0402e400c80200004c
:020000040000fa
:0402e800c802000048
:020000040000fa
:0402ec00c802000044
:020000040000fa
:0402f000c802000040
:020000040000fa
:0402f400c80200003c
:020000040000fa
:0402f800c802000038
:020000040000fa
:0402fc00c802000034
:020000040000fa
:04030000c80200002f
:020000040000fa
:04030400c80200002b
:020000040000fa
:04030800c802000027
:020000040000fa
:04030c00c802000023
:020000040000fa
:04031000c80200001f
:020000040000fa
:04031400c80200001b
:020000040000fa
:04031800c802000017
:020000040000fa
:04031c00c802000013
:020000040000fa
:04032000c80200000f
:020000040000fa
:04032400c80200000b
:020000040000fa
:04032800c802000007
:020000040000fa
:04032c00c802000003
:020000040000fa
:04033000c8020000ff
:020000040000fa
:04033400c8020000fb
:020000040000fa
:04033800c8020000f7
:020000040000fa
:04033c00c8020000f3
:020000040000fa
:04034000c8020000ef
:020000040000fa
:04034400c8020000eb
:020000040000fa
:04034800c8020000e7
:020000040000fa
:04034c00c8020000e3
:020000040000fa
:04035000c8020000df
:020000040000fa
:04035400c8020000db
:020000040000fa
:04035800c8020000d7
:020000040000fa
:04035c00c8020000d3
:020000040000fa
:04036000c8020000cf
:020000040000fa
:04036400c8020000cb
:020000040000fa
:10040000ef8320000e7f24000e0188000000000012
:10041000000020000000e000020032000001200087
:1004200020028800140007005b0007000000e000c5
:1004300003003a00001921000100200002003700eb
:100440000000200001002000810f70000100320038
:1004500014000700000020000000e000020032004d
:1004600000000200000000006a110200000000000d
:100470000040da000000fe004440a9000000200017
:100480000000e0000300320000002000a00188000e
:100490004440a800000006008a1f78008b1f7800e7
:1004a0000000060091018800800478000000eb0045
:1004b0001a003700e284440032a0b4009905ba0063
:1004c000e284440032a0b4009906ba00e2844400f9
:1004d00032a0b4000006eb00476fde00fd07b2005b
:1004e000636ce10003003a00ebff07000000eb0043
:1004f0000a003700606ce10004003a00005deb0088
:100500008b05e900fdff3e00040037006168e10053
:10051000010032000086eb000b00070019c7ba008b
:100520001905ba000e04e00003003a000a00e000da
:10053000e0ff3a0000000600fe07b2009e018800be
:100540008a047800f5ff3700395dba008b05e900b1
:100550000c003200295dba008b05e900080032006a
:100560000c00e00003003a00e284440032a0b40032
:10057000f5ff370019ddba008b05e900faff3a00f4
:100580008904e800e184440032a0b40000000600c1
:100590000040da000000fe000000050003f0a200a9
:1005a000889fbe008a9fbe008c1f78001b01070039
:1005b000220133006450e1004f0032006420e1006a
:1005c0005200320003826c0007003b000905d00096
:1005d0000306d000820f54000c065d0002003900b3
:1005e00002003200890178000306780085825500f8
:1005f00004003d000003fd008103fd008502ea00c8
:100600008b854200840f720002003b0060001000e6
:10061000e08018006011b8000005eb007a28e100c6
:100620000a00390006007800c75ddd00f707b20058
:10063000878075002d003700828171000a017800e3
:10064000610560008180d1000080d3008502e9004f
:10065000f9ff3b00060440008784480002003b008d
:1006600060041400e0841c000988a3000700320025
:100670008a81710082817100610164008904d10066
:100680000884d3008b05e800170037000978a30021
:1006900013003a000b00e000130034008b05e90062
:1006a0000804440089844c000a4474000978a300bb
:1006b0000d003a000b00e000070034008b05e90054
:1006c0000804440089844c0001003a000b0020001b
:1006d0000978a300f7ff32000001eb0002003700a9
:1006e000828171000a017800910007000cf0a700d8
:1006f00001f0a000da0037006420e10002003a00b7
:10070000838f6c00da0033000801be000200be00d7
:10071000d3003700889fbe008a9fbe008c1f7800e0
:10072000be000700c500330003866c006450e10082
:100730002e0032006420e100330032006150e100fd
:100740002f0032006120e100310032008585550024
:10075000eb07b00009002000080420000500370066
:100760000804440089844c000a0031000603430059
:1007700087834b000001530081815b00f8ff330049
:100780000203be000800a0000804440089844c0055
:10079000f6ff3900c639dd00830173000100320025
:1007a000130020008904d1000884d3000998a30015
:1007b000050032000800a7000300a0008904d10052
:1007c0000884d3008b05e8008904d1000884d30095
:1007d0000001eb000281d2005500070001f0a100ea
:1007e0000cf0a70001f0a0009d0037006420e1009c
:1007f0009f0032000801be000200be00f7ff370074
:100800006120e1009a0032006000b800f3ff370079
:100810000000200001f82700f0ff3700140020003e
:10082000ff003700f4ff2f00fd0037000001be007d
:10083000650007000470a70003f0a1006509b1007e
:10084000160032000d0035006828e1000600350072
:10085000f0ff2f00f1ff27000300e00013003b0032
:1008600001002800000005000000400081804800d1
:100870008502e900fcff3a0008003700f88f4200cb
:1008800002003c008000eb00000005008100d10068
:100890000080d3008502e800fcff3a000300e0007e
:1008a00002003b0060001000e0801800000006001d
:1008b0000001be00440007000470a70003f0a1007f
:1008c00003f8a30013003a006509b10010003200dc
:1008d000090035006928e100020035000100280008
:1008e0000000050000004000818048008502e9000a
:1008f000fcff3a0000000600f88f420005003500ba
:100900008100d1000080d3008502e800fcff3a009e
:10091000000006008000eb00000005004f89de00ab
:1009200082017800d90037006011b800e700370075
:1009300081002000618055000b003d000b0020006d
:1009400061fe2f000100e1001d0034008281710072
:10095000610164008904d1000884d3000000e8002c
:10096000faff3a007100200061006400030070008b
:10097000020060000900320061044400e0844c0081
:100980000988a500050032008b05e8006808e10031
:1009900002003a008904d1000884d300f20f20003d
:1009a0000258e10005003d00c75ddd00f907b20017
:1009b0008980750008007800000006000bf8270009
:1009c0008b00780000000500c70ade00f107b200c6
:1009d000f50fb20008003200e1cf42000200320001
:1009e0000170a00024000500810f7000010032009a
:1009f0000408050044000500810f700002003a0061
:100a0000140005008502e9000000400081c0480094
:100a1000fcff3b000170a000240005000004be00a4
:100a2000e9ff07000003be000405be000200be008f
:100a3000e5ff0700844f7500000006000200be00bd
:100a40006450e100050036006420e1000200360039
:100a50000968a30001003a000800be000160a00080
:100a60004f0678004f05be004f04be000000060090
:100a7000f0ff2f00f1ff2700f9ff3700889fbe002d
:100a80008a9fbe008c1f7800e4ff0700ebff330055
:100a900003866c006450e100240032006420e10011
:100aa000270032006150e100220032006120e100a5
:100ab000210032008b854200eb07b1000134b80001
:100ac000003ab8000804420089844a00013ab8009c
:100ad0000030b8008880400009014a00040033005b
:100ae0000000400081804800020149008b05e900b8
:100af000c909dd00830170000100320013002000ed
:100b0000c814de004814dd004709de001200b20000
:100b1000c808de000884700085ff070001f0a1000e
:100b20000cf0a70001f0a000cdff37006120e1002c
:100b3000cfff32000801be000200be00f7ff370001
:100b40006150e100fcff3a00c9ff3700889fbe00fa
:100b50008a9fbe008c1f78000004be009aff070029
:100b60000478a30026003a006120e100250032004d
:100b700009f8a30025003a006420e10021003200ba
:100b8000f507b1000508a300020032000000400094
:100b9000818048006044b80003102000020020005b
:100ba00000004000818048000805440089854c0011
:100bb0000a0541008b8549000a0550008b855800c5
:100bc000030033000a00be00020474008384740032
:100bd0008301d1000281d300830f7100f0ff3a003e
:100be0008904d1000884d3006001490082017800a3
:100bf000c1adde00fb07b0004dff070098ff3700d6
:100c00000960a0000800be0095ff37001202200016
:100c1000e2418800f0ff2f00f1ff270090ff37002e
:100c2000889fbe008a9fbe00841f78007bff07005c
:100c30004f00780011003300f0ff2f00838f6c000d
:100c400006003b00040565000a00a7000800370005
:100c500009f0a6001000200008003700820f5400a1
:100c6000838f5c00030039001000200001003e006b
:100c70000000200009f0a7000000ea004f05be00b8
:100c80004f04be000000e00000000600881f78004e
:100c9000030478000300e00007003d00600010003e
:100ca000e080180060011900e081190002003b009b
:100cb00001f02d00030037000400070008f0a70032
:100cc00001f0a0004f04780000000600889fbe00dd
:100cd0008a9fbe00008270000402710004827100cd
:100ce000260032000004be000200be006011b80001
:100cf0006b092000950220000182cf000a00390014
:100d00000541b1000082cf00070039000541b10064
:100d10000982cf00040039000541b1000882cf00ec
:100d2000010039000541b1000542520012003200b5
:100d30000a003b0082817100610164008100d100e2
:100d40000080d3008984d3000884d3008b05e80099
:100d50000442e800f7ff3a000700370008044400a7
:100d600089844c0000004800818048008b05e90020
:100d70000442e900f9ff3a00edfe07004f05be000e
:080d80004f04be000000060054
:020000040000fa
:100d88000000fa006000b8006041880071418800e6
:100d98006000b80080418800914188006000b80078
:100da800a0418800b14188006000b800c0418800b7
:100db800d14188000080fa00000006000400fa0013
:100dc800881f7800008fbe0018c0b3006011b800fb
:100dd8001e00be008ffe07000000e0000100350085
:100de8000044eb000804e000020032000084eb003d
:100df80007003700180020006011b8001e00be0070
:100e080086fe07000000e00001003c000004eb0043
:100e1800080078004f0478000080fa0000000600ff
:100e28000c00fa004007980051079800dd030700fe
:100e3800d3ff07004e0090000000e00023003a00b6
:100e48005e0090004780de00004078000080fb00d4
:100e580020079800de009000f00720000080600066
:100e6800300798002e0090000000e00008003a00cb
:100e78003e009000cf80de00a6fe070002002000a2
:100e8800832c240021fe0700008fbe000b003700d2
:100e98002e009000e10f500008003a003e0090003c
:100ea800cf80de009bfe070002002000832c240078
:100eb80016fe070001f0a200008fbe001e01be0052
:100ec8001e00be00ff000700240037004e009000ff
:100ed800e10f500010003a005e009000cf80de0065
:100ee8008cfe070012922f00e3c82300e1fe0700e2
:100ef800628f2200c3dd2300defe0700008fbe00e4
:100f08001e00be0001f0a2000001be001e00be00cf
:100f1800ec000700110037004e009000e20f50006f
:100f28000e003a005e009000cf80de0079fe0700d8
:100f380012922f00e3c82300cefe0700628f220022
:100f4800c3dd2300cbfe0700008fbe001e00be00dd
:100f580001f0a2001e01be00da0007000080fa00be
:100f6800000006000000fa000021ef0005e1a800db
:100f78000000000020048000680060000000e0001d
:100f8800fcff32008460a90005e1a9000080fa0096
:100f9800000006000200fa00000f78001027200069
:100fa800d0088800f1088000f0fc2f000080600065
:100fb8000050a000f00888001fe1a80008003700d2
:100fc80000000000310480000080200000806000e4
:100fd8000000e000fbff32008760a9001e0fe90057
:100fe8001e0078000000e000f5ff3c000080fa00d9
:100ff800000006001800fa00889fbe00000f980045
:10100800110f9800220f9800330f980090030700e3
:10101800bc030700008fbe00bf030700200798002d
:10102800310798001e01be000e0890009e0890002f
:1010380058fd070040079800510798002e019000be
:10104800be0190002e089000be08900051fd0700d8
:101058006007980071079800604180007141800026
:101068004e019000de0190004bfd070060418800b2
:101078007141880080418000914180006e0190009c
:10108800fe01900044fd07008041880091418800de
:10109800f2d22d00030924004e009000de009000db
:1010a80074fe07000004be006041800071418000aa
:1010b800f2282c00331d24006efe07000001be003c
:1010c8000800be0034fd0700a0418800b141880037
:1010d800f2d22d00030924006e009000fe0090005b
:1010e80064fe07000004be0080418000914180003a
:1010f800f2282c00331d24005efe07000001be000c
:101108000800be0024fd0700c0418800d1418800c6
:10111800c0418000d1418000a4418000b5418000d9
:101128000001be000400be00250207004f04be00f7
:101138000080fa00000006002400fa00889fbe0024
:10114800200f9800310f9800420f9800530f980015
:10115800640f9800750f98000617980017179800e5
:101168000000200001082400008fbe0000002000bd
:1011780001082400200798003107980018c0b30020
:101188006011b8000e1090009e109000a1fd07009d
:101198000000e000010035000044eb000804e00016
:1011a800050032002e009000be00900001f0a20061
:1011b800200798003107980018c0b3006011b800e4
:1011c8006e089000fe08900092fd07000000e00005
:1011d800010035000044eb000804e0000300320081
:1011e8001e00be0001f0a200008fbe006e08900035
:1011f800fe0890000002be0005f0a1000e1090004d
:101208009e10900001f0a1000001be000400be0085
:10121800e1fc070002002000030024003bfd07005a
:1012280040079800510798006e089000fe0890004b
:1012380001f0a1000001be004e009000de00900009
:10124800d4fc070060079800710798000e10900002
:101258009e10900001f0a1000001be004e00900019
:10126800de009000cbfc0700000f9800110f9800db
:101278000e0990009e0990002e009000be0090007c
:10128800fcfd07004e099000de099000c2fc070033
:101298000004be006e019000fe0190001e00be001a
:1012a800f4fd07002e099000be099000bafc070063
:1012b8000801be00c20107004f04be000080fa000a
:1012c800000006004400fa00889fbe008a1f7800cc
:1012d800601f9800711f9800022798001327980034
:1012e8003033230031eb2300008fbe0000002000c4
:1012f80001f0230030179800411798000000eb0018
:10130800501798000000eb00200798006000b80014
:1013180070079800010f98006000b800100f98003f
:10132800210f98006000b8006017980071179800a6
:101338006000b800001f9800111f98006000b800f6
:10134800300f9800410f98006000b800500f9800c7
:10135800610f98003e099000ce0990006e18900029
:10136800fe1890008bfc0700700f9800011798007a
:101378005e099000ee0990000e2090009e209000db
:1013880084fc070010179800211798006e19900028
:10139800fe1990007e0890008e109000dbfc07007c
:1013a800201f9800311f98000e2190009e21900068
:1013b8001e109000ae109000d4fc0700401f98004b
:1013c800511f98006266260063fc23007e08900087
:1013d8008e109000a7fd070030079800410798007d
:1013e8003233230033fd23001e109000ae1090000e
:1013f800a0fd0700500798006107980018c0b300c7
:101408001e01be003e009000ce00900003fd0700c4
:101418000000e00001003c000044eb000804e0008c
:10142800040032001e01be003207980043079800ee
:101438000f0037001e00be0001f0a20018c0b30064
:101448003e019000ce019000f4fc07000000e0008f
:1014580001003c000044eb000804e00004003200f6
:101468001e00be0001f0a200300798004107980056
:1014780018c0b3001e01be005e009000ee00900090
:10148800e6fc07000000e00001003c000044eb001f
:101498000804e000040032001e01be005207980054
:1014a800630798000f0037001e00be0001f0a2007d
:1014b80018c0b3005e019000ee019000d7fc070051
:1014c8000000e00001003c000044eb000804e000dc
:1014d800040032001e00be0001f0a2005007980070
:1014e800610798007e0190008e0990003e009000f0
:1014f800ce00900027fc07000004be00a2702d005b
:1015080033c223003e109000ce10900059fd070012
:101518001ac0b3000001be000800be00bffc0700ef
:101528000000e00001003c000045eb000a04e00078
:101538000b003200a2702d0033c223003e10900031
:10154800ce1090004bfd07007e0190008e099000a0
:1015580011fc070030079800410798002000370069
:101568007e0190008e0990003e009000ce00900011
:1015780008fc07000004be003e109000ce1090004a
:1015880001f0a200a2702d0033c2230039fd07002c
:101598001ac0b3000001be000800be009dfc070091
:1015a8000000e000010035000045eb000a04e000ff
:1015b8000b003200a2702d0033c223003e109000b1
:1015c800ce1090002bfd07000001be007e009000a9
:1015d8008e089000effb070030079800410798003d
:1015e8001e099000ae0990005e009000ee00900089
:1015f800e8fb07000004be00a2702d0033c22300e0
:101608003e109000ce1090001afd07001ac0b300db
:101618000001be000800be0080fc07000000e000da
:1016280001003c000045eb000a04e0000b0032001a
:10163800a2702d0033c223003e109000ce109000ff
:101648000cfd07001e099000ae099000d2fb0700b0
:101658005007980061079800200037001e09900085
:10166800ae0990005e009000ee009000c9fb0700f4
:101678000004be003e109000ce10900001f0a200c1
:10168800a2702d0033c22300fafc07001ac0b30071
:101698000001be000800be005efc07000000e0007c
:1016a800010035000045eb000a04e0000b003200a1
:1016b800a2702d0033c223003e109000ce1090007f
:1016c800ecfc07000001be001e089000ae08900068
:1016d800b0fb070050079800610798003e01900092
:1016e800ce01900072079800030f98005e019000e9
:1016f800ee019000120f9800230f98005e0b9000e7
:10170800ee0b90003e0a9000ce0a90005e01900019
:10171800ee0190003e009000ce00900086fe07008b
:101728003e099000ce099000621798007317980040
:101738005e099000ee099000021f9800131f9800a0
:101748009f010700300f9800410f9800ae01070075
:10175800500f9800610f98003e099000ce09900044
:101768006e189000fe1890008afb0700700f980012
:10177800011798005e099000ee0990000e20900075
:101788009e20900083fb07001017980021179800ef
:101798006e199000fe1990007e0890008e1090003f
:1017a800dafb0700201f9800311f98000e219000d7
:1017b8009e2190001e109000ae109000d3fb0700f1
:1017c800401f9800511f98007e0890008e109000ce
:1017d8000001be00a7fc07000004be001e10900018
:1017e800ae1090000001be00a2fc07000001be0080
:1017f8000800be0068fb0700d2fc070018c0b30051
:10180800d2cc2c00c3e4230002fc07000000e00057
:10181800010035000044eb000804e000030032003a
:10182800a099290091e12300008fbe002e18900096
:10183800be1890000001be008efc07000004be0028
:101848004e189000de1890000001be0089fc0700c9
:101858000001be000800be004ffb0700b9fc0700ee
:1018680018c0b300d2cc2c00c3e42300e9fb070066
:101878000000e000010035000044eb000804e0002f
:101888000e0032002e0090000000e80020079800ab
:10189800ae009000301f2000808f500007003400f9
:1018a8006011b8006000b800450007004f057800d7
:1018b8004f04be000080fa00000006002e189000b9
:1018c800be1890000001be006afc07000004be00bc
:1018d8004e189000de1890000001be0065fc07005d
:1018e8000001be000800be002bfb070095fc0700a6
:1018f80018c0b300d2cc2c00c3d42300c5fb07000a
:101908000000e000010035000044eb000804e0009e
:10191800030032006011b8006000b800280007001a
:1019280090fd0700a7fe37000000fa00613680002e
:10193800f00f2e0080806000003021000100700050
:10194800603688009136800000fe2f00008060001d
:101958004001b30090368800510c800080ff2f00b2
:1019680000806000500c88008a61a9008821ef007f
:101978008621ef00510c800080ff2f00008060005e
:101988006000b300500c8800810c800080ff2f009d
:1019980000806000800c88009061a9008e21ef0013
:1019a8008c21ef00810c800080ff2f0000806000f8
:1019b8006000b300800c88000080fa000000060078
:1019c8001000fa00889fbe00400798005107980051
:1019d800620798007307980018c0b3006011b80038
:1019e8004e009000de0090008cfb07000000e00035
:1019f80001003c000044eb000804e0000a0032004b
:101a0800926c2700e3f323004e009000de00900064
:101a18003efb0700f2512800b3e62300defa070078
:101a2800008fbe001600370018c0b3006011b80060
:101a38004e009000de00900076fb07000000e000fa
:101a4800010035000044eb000804e0000a00320001
:101a5800926c2700e3f323004e009000de00900014
:101a68002afb0700f2512800b3e62300c9fa070051
:101a7800008fbe00020037006000b800008fbe0073
:101a880018c0b3006011b8006e009000fe0090000e
:101a980062fb07000000e00001003c000044eb008e
:101aa8000804e0000b0032003233230033f3230034
:101ab8006e009000fe00900014fb0700a299290018
:101ac80093e92300b4fa070020079800310798002b
:101ad8001800370018c0b3006011b8006e009000fd
:101ae800fe0090004bfb07000000e00001003500fd
:101af8000044eb000804e0000b00320032332300fe
:101b080033f323006e009000fe009000fffa0700f8
:101b1800a299290093e923009efa0700200798005c
:101b280031079800030037006000b80020079800cc
:101b3800310798000200200003f023002e009000d7
:101b4800be009000cbfb07000001be000000200093
:101b580001fc23008ffa0700020020000312240072
:101b6800eafa07000004be00600880000000e800f0
:101b78008000eb006afb07000001be000800be0001
:101b8800bcfb070048fb070000007800600c8800d9
:101b98000200200003f023001e00be00b5fb070072
:101ba8000200200003fc23007bfa0700020020004b
:101bb80003122400d5fa07000004be006008800064
:101bc8000000e8008000eb0055fb07000001be00a4
:101bd8000800be00a7fb070033fb070000007800e1
:101be800300c88004f04be000080fa000000060098
:101bf8000800fa00889fbe00008fbe0022079800e8
:101c0800330798000200200003f023002e00900004
:101c1800be00900097fb07000001be0000002000f6
:101c280001fc23005bfa07000200200003122400d5
:101c3800b6fa07000004be00600880000000e80053
:101c48008000eb0036fb07000001be000800be0064
:101c580088fb070014fb070000007800600c880070
:101c68000200200003f023001e00be0081fb0700d5
:101c78000200200003fc230047fa070002002000ae
:101c880003122400a1fa07000004be0060088000c7
:101c98000000e8008000eb0021fb07000001be0007
:101ca8000800be0073fb0700fffa07000000780079
:101cb800300c88004f04be000080fa0000000600c7
:101cc8000000fa00d102a800d122a800d062a80022
:101cd800d082a800e134800000fe2f000080600060
:101ce8009001b300e0348800e1348000f00f2e004a
:101cf800808060000080210001007000e0348800ce
:101d08000135800000fe2f00008060003001b30024
:101d18000035880001358000f00f2e0080806000bb
:101d2800004021000100700000358800010f80008c
:101d38000070200001007000000f8800810f8000f3
:101d48000070200001007000800f880000532700f9
:101d5800200f880000532700a00f88000053270099
:101d6800c040880000532700d04088006000b800b9
:101d7800e0408800f14088006000b8000041880019
:101d8800114188006000b800204188003141880076
:101d98006000b80040418800514188000080fa0086
:101da800000006000000fa0000532700200f8800fa
:101db80000532700a00f88000080fa0000000600ea
:101dc8000000fa00889fbe00200f80008000eb0012
:101dd800d3fa07000004be00c0408000cf80de00b8
:101de800ccfa07000001be000800be00e9f90700b0
:101df800b2ac260083a623001efb07004f04be00da
:101e08000080fa00000006000000fa00889fbe006b
:101e1800a00f80008000eb00c1fa07000004be009c
:101e2800d0408000cf80de00bafa07000001be0073
:101e38000800be00d7f90700b2ac260083a623002d
:101e48000cfb07004f04be000080fa0000000600eb
:101e58000800fa00daff0700008fbe00eaff07005b
:101e680020079800310798000021ef0005e1a8003d
:101e78000000000020048000680060000000e0000e
:101e8800fcff32008460a90005e1a900e040800061
:101e9800f14080000001be001e00be00bdf9070031
:101ea800a2702d0033c2230018fa070020418800d1
:101eb8003141880000418000114180000001be00ce
:101ec8002e009000be009000b2f90700a2702d000d
:101ed80033c223000dfa07004041880051418800b1
:101ee8001e01be00e2408800f34088002e019000e9
:101ef800be01900002418800134188000080fa006a
:101f0800000006000000fa002041800031418000f6
:101f18000080fa00000006000000fa00404180003e
:101f2800514180000080fa00000006000000fa001d
:101f380060022000303a880032002000800720002c
:101f4800a109200033742000804978008149780075
:101f580082497800120020006004200071052000ea
:101f680023742000804978008149780082497800ec
:101f7800213a800000fe2f0000806000203a88008f
:101f8800313a800000e02f0080806000800220004d
:101f980001007000303a8800213a8000f0f32f00e9
:101fa80000806000203a880000000000113a80009c
:101fb80000022000008060000000e000fbff32000b
:101fc8000080fa00000006000000fa0005e1a90000
:101fd8000421a90021088000f0fc2f000080600087
:101fe8000050a000200888000021ef009086210002
:101ff8001008880011e1a9001021a90081088000bb
:10200800f0fc2f00008060000050a00080088800cd
:102018000621ef00908621006008880013e1a900de
:102028001221a90091088000f0fc2f0000806000b8
:102038000050a000900888000a21ef00300d23000e
:102048007008880011e1a80013e1a8000080fa00d8
:10205800000006000200fa00d2cc2c00c3ec2300da
:10206800d0cc2c00c1ec230055fe07000000eb008b
:10207800000f780002003700bafb07001e0fe800c7
:10208800f01820009e007800808f5000faff34007e
:102098000000eb00000f78001a0037006cff070003
:1020a80098ff070000408800114088009aff070049
:1020b800204088003140880044408000554080001e
:1020c80000408000114080000001be000400be00f6
:1020d80031f9070040408800514088006440800082
:1020e8007540800020408000314080000001be0023
:1020f8000400be0028f9070060408800714088008d
:102108001e0fe800703e20009e007800808f50006f
:10211800e2ff34008621ef008c21ef004040800070
:102128005140800002002000a347240077f90700ef
:1021380080408800914088006040800071408000a5
:1021480002002000a347240070f90700a04088007f
:10215800b14088000080fa00000006000000fa0084
:1021680021e2a8002342a8000111800090ff2f005f
:1021780000806000001188004001200040118800a4
:1021880031e2a8003342a8008111800090ff2f009f
:10219800008060008011880040012000c011880084
:1021a80051368000f00f2e00808060000030200043
:1021b80001007000503688005136800000fe2f0064
:1021c800008060005000b300503688000080fa009c
:1021d800000006000000fa00101180006100600095
:1021e8000000e00002003200301180002011880059
:1021f8000080fa00000006000000fa00301180009c
:102208000080fa00000006000400fa00008fbe00fb
:1022180002002000832c24001e00be0015fa0700cf
:10222800008fbe001e00be007ef907000000780087
:10223800201188000080fa00000006000000fa0063
:10224800c842a900cc42a80031e2a8003342a80045
:102258008111800090ff2f000080600080118800ad
:1022680040012000c01188003135800000fe2f0099
:1022780000806000e000b3003035880071368000cf
:10228800f00f2e00808060000050200001007000d8
:102298007036880031358000f00f2e008080600095
:1022a8000030200001007000303588008136800041
:1022b80000fe2f00008060006000b30080368800b8
:1022c800cc42a9000080fa00000006000000fa00d5
:1022d800c882a900c8a2a900cc82a800cca2a900e3
:1022e80012ff070038ff07008ffd070074fe070084
:1022f8009aff07000200200003f0230000002000de
:1023080001f023003afe0700d1fe070002ff070094
:08231800bdff0700f7ff3700cd
:020000040000fa
:102320001808000014000000000000002c08000045
:10233000100000000000000000080000180000006d
:10234000000000003c080000020000000000000047
:042350000000000089
:020000040000fa
:0200000401f009
:04000800ffff0000f6
:020000040000fa
:0200000401f009
:04000c00810000006f
:020000040000fa
:0200000401f009
:04001000a300000049
:020000040000fa
:0200000401f009
:040014005f00000089
:020000040000fa
:0200000401f009
:04001800f0000000f4
:00000001FF
